:0604AA00C2A58F80D2A75D
:0804B0007F027EEFDEFEDFFC9F
:0104B8002221
:0A04C500C2A61204AAC2A70204B0E6
:10041F00CFCDCFCECCCE1202C97C007D0A1202C93D
:04042F00ED2430FF89
:0A043300D2A61204AAC2A70204B068
:10045A00AE07BE0104ED148006BE0209ED243F4436
:06046A0080FF1204C52210
:100485007F381204C57F0C1204C57F061204C57F90
:04049500010204C597
:0A04CF00AC0312045AAF0402043318
:0603FC008B088A09890A42
:1004020012045AE4FDAB08AA09A90A8D8275830079
:0C04120012028AFF60061204330D80E91C
:01041E0022BB
:0C03C9007F0AEA24FFFDE434FFFC7E0004
:0803D5008E0D8F0E8C0F8D10B0
:1003DD007F017E00E4FBEBC39510E50F6480F8749C
:0E03ED008098500AAC0DAD0E1202B70B80E8DE
:0103FB0022DF
:04043D008A0A8B0B91
:1004410012045AAA0CEAD39400400D1203C9AC0A53
:08045100AD0B12041F1A80ED2F
:010459002280
:10031E0012045AC3EA64809480400B7F2B1204337C
:10032E008A168B17800E7F2D120433C3E49BF517AC
:10033E00E49AF516AA15EAD39400400D1203C9AC3F
:09034E0016AD1712041F1A80ED10
:010357002283
:040358008A1A8B1B57
:10035C0012045AAA1CEAD3940040297F101203CB32
:10036C00AC1AAD1BCFCDCFCECCCE1202C9EF540FF1
:10037C00FEC3940AEE5004243080022437FF12048A
:04038C00331A80D1CF
:01039000224A
:040391008A1F8B2014
:1003950012045AAA21EAD394004028EA24FFFDE476
:1003A50034FFFC7F027E001203D5AC1FAD20CFCDFC
:1003B500CFCECCCE1202C9EF54012430FF12043344
:0303C5001A80D2C9
:0103C8002212
:1004990050617373776F72643A004F4B0045525243
:0104A9000052
:10018C001204857BFF7A0479997D017F011203FCAF
:10019C001200038F26E52660F7D3940A5041C3E57D
:1001AC00239404E52294005028AE24AF257C007DD6
:1001BC000A1202B78E248F25E52675F00A84E5F025
:1001CC002525F525E43524F5240523E523700205C2
:1001DC0022750C04AB25AA247D017F0212043DE597
:1001EC0026640D7036E525B4580DE524B404087B5F
:1001FC00FF7A0479A380067BFF7A0479A67D0C7FB5
:10020C00011203FCE4F524F525F522F523750C0405
:10021C00AB25AA247D017F0212043DE526640E70F5
:10022C003BD3E5239400E52294004019AE24AF257E
:10023C007C007D0A1202C98E248F25E523152370BC
:10024C000D15228009E4F524F525F522F523750C0E
:10025C0004AB25AA247D017F0212043DE526640F20
:10026C00600302019CF524F525F522F523750C0499
:0E027C00AB25AA247D017F0212043D02019CE5
:10047000EF1FAC0670011E4C600A7D027CEFDCFEB3
:04048000DDFC80EC33
:010484002255
:10000300E4F5087590FFC2932097137F14FE120442
:10001300703097FD7F147E001204707508012096DE
:10002300147F147E001204703096FD7F147E00123C
:1000330004707508052095147F147E001204703037
:1000430095FD7F147E001204707508092094147FB7
:10005300147E001204703094FD7F147E001204702D
:1000630075080D7590FFC2922097147F147E0012BD
:1000730004703097FD7F147E00120470750802200F
:1000830096147F147E001204703096FD7F147E0058
:100093001204707508062095147F147E00120470F4
:1000A3003095FD7F147E0012047075080A209414A5
:1000B3007F147E001204703094FD7F147E001204BE
:1000C3007075080E7590FFC2912097147F147E00FF
:1000D3001204703097FD7F147E00120470750803BC
:1000E3002096147F147E001204703096FD7F147ED8
:1000F300001204707508072095147F147E00120403
:10010300703095FD7F147E0012047075080B2094E7
:10011300147F147E001204703094FD7F147E00124D
:10012300047075080F7590FFC2902097147F147E9A
:10013300001204703097FD7F147E0012047075085E
:10014300042096147F147E001204703096FD7F14F1
:100153007E001204707508082095147F147E001227
:1001630004703095FD7F147E0012047075080C2016
:1001730094147F147E001204703094FD7F147E006B
:08018300120470750810AF08AA
:01018B002251
:030000000204B93E
:0C04B900787FE4F6D8FD75812602018CE6
:10028A00BB010CE58229F582E5833AF583E0225029
:10029A0006E92582F8E622BBFE06E92582F8E22273
:0D02AA00E58229F582E5833AF583E493228D
:1002B700EF8DF0A4A8F0CF8CF0A428CE8DF0A42E5B
:0202C700FE2215
:1002C900BC000BBE0029EF8DF084FFADF022E4CC19
:1002D900F875F008EF2FFFEE33FEEC33FCEE9DECE2
:1002E900984005FCEE9DFE0FD5F0E9E4CEFD22ED28
:1002F900F8F5F0EE8420D21CFEADF075F008EF2F72
:10030900FFED33FD4007985006D5F0F222C398FD62
:050319000FD5F0EA22FF
:00000001FF
