:1000C30075A0FE1200E312000E8F0AE50A60F7B472
:1000D30001F4050BE50BC3940240EBE4F50B80E65A
:03000B0002006F81
:0B006F00C0E0C0D075D000C000C0078A
:10007A00758A18758CFC0509E50970020508C39490
:10008A00F4E50894014029750800750900E50B702C
:10009A000DAFA07801EF08800123D8FDF5A0E50B8C
:1000AA00B4010DAFA07801EF08800103D8FDF5A0D7
:0900BA00D007D000D0D0D0E03214
:1000E3005389F0438901758A18758CFCC28DD28CB3
:0D00F300758CFC758C17D2A9D2AFC2B92252
:10000E00E4F50C20B1137F14FE12010030B0FD7F19
:10001E00147E00120100750C0120B0147F147E00B6
:10002E0012010030B1FD7F147E00120100750C022A
:10003E0020B2147F147E0012010030B2FD7F147EB8
:10004E0000120100750C0320B3147F147E00120100
:10005E000030B3FD7F147E00120100750C04AF0C4E
:01006E00226F
:10010000EF1FAC0670011E4C600A7D027CEFDCFE26
:04011000DDFC80ECA6
:0101140022C8
:03000000020115E5
:0C011500787FE4F6D8FD75810C0200C371
:00000001FF
