:10056B0020202D20202D20200020203A20203A2052
:02057B0020005E
:1002E7001205571205B17BFF7A05796B7D017F01F6
:1002F7001204E37BFF7A0579747D017F021204E320
:10030700120003120100751A02AB09AA087D017FCA
:1003170001120524751A02AB0BAA0A7D047F01128C
:100327000524751A02AB0DAA0C7D077F011205245F
:10033700751A02AB0FAA0E7D017F02120524751AEA
:1003470002AB11AA107D047F02120524751A02ABB5
:0C03570013AA127D077F0212052480A764
:06058E00C2A58F80D2A778
:080594007F027EEFDEFEDFFCBA
:01059C00223C
:0A059D00C2A612058EC2A702059443
:10050600CFCDCFCECCCE1202067C007D0A120206DB
:04051600ED2430FFA1
:0A051A00D2A612058EC2A7020594B6
:10054100AE07BE0104ED148006BE0209ED243F444E
:0605510080FF12059D224F
:100557007F3812059D7F0C12059D7F0612059D7F32
:040567000102059DEB
:0A05A700AC03120541AF0402051A6F
:0604E3008B168A17891830
:1004E900120541E4FDAB16AA17A9188D8275830080
:0C04F9001201C7FF600612051A0D80E911
:0105050022D3
:0C04B0007F0AEA24FFFDE434FFFC7E001C
:0804BC008E1B8F1C8C1D8D1E90
:1004C4007F017E00E4FBEBC3951EE51D6480F87498
:0E04D4008098500AAC1BAD1C1201F40B80E89E
:0104E20022F7
:040524008A188B198D
:10052800120541AA1AEAD39400400D1204B0AC187F
:08053800AD191205061A80ED51
:010540002298
:10040500120541C3EA64809480400B7F2B12051AC4
:100415008A248B25800E7F2D12051AC3E49BF525B2
:10042500E49AF524AA23EAD39400400D1204B0AC53
:0904350024AD251205061A80ED24
:01043E00229B
:04043F008A288B2953
:10044300120541AA2AEAD3940040297F101204B26C
:10045300AC28AD29CFCDCFCECCCE120206EF540FB0
:10046300FEC3940AEE5004243080022437FF1205A1
:040473001A1A80D100
:010477002262
:040478008A2D8B2E10
:10047C00120541AA2FEAD394004028EA24FFFDE498
:10048C0034FFFC7F027E001204BCAC2DAD2ECFCD10
:10049C00CFCECCCE120206EF54012430FF12051A37
:0304AC001A80D2E1
:0104AF00222A
:10057D000E08001900070017000F001E002C0003C5
:0505B100C2B5C2B62234
:03036300EB2DFD82
:02036600A907E5
:10036800D2B5E4FB74017E00A803088005C333CE30
:1003780033CED8F9FFE9F582EF558224FF92B4D243
:10038800B6C2B60BBB08DDE4FB74017E00A8030807
:100398008005C333CE33CED8F9FFEDF582EF558211
:0E03A80024FF92B4D2B6C2B60BBB08DDC2B5BC
:0103B6002224
:0203B700AD0790
:1003B900E4F9430501D2B5FB74017E00A803088066
:1003C90005C333CE33CED8F9FFEDF582EF5582243C
:1003D900FF92B4C2B6D2B60BBB08DDE4FBD2B6C2FB
:1003E900B630B40D7401A803088002C333D8FC42A7
:0B03F900010BBB08E8C2B5C2B4AF01A5
:0104040022D5
:10000300E4FD7F8E120366AE08AF097C007D0A1201
:100013000206EFC454F0FBAE08AF097C007D0A1260
:1000230002067F8C120363AE0AAF0B7C007D0A12BB
:100033000206EFC454F0FBAE0AAF0B7C007D0A123C
:1000430002067F88120363AE0CAF0D7C007D0A129B
:100053000206EFC454F0FBAE0CAF0D7C007D0A1218
:100063000206EB2DFD7F86120366AE0EAF0F7C00FA
:100073007D0A120206EFC454F0FBAE0EAF0F7C00F4
:100083007D0A120206EB2DFD7F84120366AE10AFCC
:10009300117C007D0A120206EFC454F0FBAE10AFD0
:1000A300117C007D0A120206EB2DFD7F821203668E
:1000B300AE12AF137C007D0A120206EFC454F0FBAC
:1000C300AE12AF137C007D0A120206EB2DFD7F807A
:1000D300120366AE14AF157C007D0A120206EFC44C
:1000E30054F0FBAE14AF157C007D0A120206EB2D13
:0D00F300FD7F8A1203667D807F8E0203660A
:100100007F8C1203B7AD07EDC4540F75F00AA4FF3E
:10011000AEF0ED540F7C002FF509EC3EF5087F881A
:100120001203B7AD07EDC4540F75F00AA4FFAEF08B
:10013000ED540F2FF50BEC3EF50A7F861203B7AD99
:1001400007EDC4540F75F00AA4FFAEF0ED540F2F65
:10015000F50DEC3EF50C7F841203B7AD07EDC454EA
:100160000F75F00AA4FFAEF0ED540F2FF50FEC3E23
:10017000F50E7F821203B7AD07EDC4540F75F00A78
:10018000A4FFAEF0ED540F2FF511EC3EF5107F807B
:100190001203B7AD07EDC4540F75F00AA4FFAEF01B
:1001A000ED540F2FF513EC3EF5127F8A1203B7AD15
:1001B00007EDC4540F75F00AA4FFAEF0ED540F2FF5
:0601C000F515EC3EF514FC
:0101C6002216
:0300000002025B9E
:0C025B00787FE4F6D8FD75812F0202A226
:1001C700BB010CE58229F582E5833AF583E02250ED
:1001D70006E92582F8E622BBFE06E92582F8E22237
:0D01E700E58229F582E5833AF583E4932251
:1001F400EF8DF0A4A8F0CF8CF0A428CE8DF0A42E1F
:02020400FE22D8
:10020600BC000BBE0029EF8DF084FFADF022E4CCDC
:10021600F875F008EF2FFFEE33FEEC33FCEE9DECA5
:10022600984005FCEE9DFE0FD5F0E9E4CEFD22EDEB
:10023600F8F5F0EE8420D21CFEADF075F008EF2F35
:10024600FFED33FD4007985006D5F0F222C398FD26
:050256000FD5F0EA22C3
:100267000202E7E493A3F8E493A34003F68001F2C4
:1002770008DFF48029E493A3F85407240CC8C33398
:10028700C4540F4420C8834004F456800146F6DF67
:10029700E4800B010204081020408090057DE47E75
:1002A700019360BCA3FF543F30E509541FFEE4935C
:1002B700A360010ECF54C025E060A840B8E493A323
:1002C700FAE493A3F8E493A3C8C582C8CAC583CA4E
:1002D700F0A3C8C582C8CAC583CADFE9DEE780BE06
:01058D00006D
:00000001FF
